{
  "contractName": "ICO",
  "abi": [
    {
      "inputs": [
        {
          "internalType": "contract Token",
          "name": "_tokenContract",
          "type": "address"
        },
        {
          "internalType": "uint256",
          "name": "_tokenPrice",
          "type": "uint256"
        },
        {
          "internalType": "uint256",
          "name": "_min",
          "type": "uint256"
        },
        {
          "internalType": "address",
          "name": "owner",
          "type": "address"
        }
      ],
      "stateMutability": "nonpayable",
      "type": "constructor"
    },
    {
      "anonymous": false,
      "inputs": [
        {
          "indexed": false,
          "internalType": "bool",
          "name": "saleFailed",
          "type": "bool"
        }
      ],
      "name": "SaleEnded",
      "type": "event"
    },
    {
      "anonymous": false,
      "inputs": [
        {
          "indexed": false,
          "internalType": "address",
          "name": "_buyer",
          "type": "address"
        },
        {
          "indexed": false,
          "internalType": "uint256",
          "name": "_amount",
          "type": "uint256"
        }
      ],
      "name": "Sell",
      "type": "event"
    },
    {
      "inputs": [],
      "name": "minThreshold",
      "outputs": [
        {
          "internalType": "uint256",
          "name": "",
          "type": "uint256"
        }
      ],
      "stateMutability": "view",
      "type": "function"
    },
    {
      "inputs": [],
      "name": "price",
      "outputs": [
        {
          "internalType": "uint256",
          "name": "",
          "type": "uint256"
        }
      ],
      "stateMutability": "view",
      "type": "function"
    },
    {
      "inputs": [],
      "name": "saleEnded",
      "outputs": [
        {
          "internalType": "bool",
          "name": "",
          "type": "bool"
        }
      ],
      "stateMutability": "view",
      "type": "function"
    },
    {
      "inputs": [],
      "name": "saleFailed",
      "outputs": [
        {
          "internalType": "bool",
          "name": "",
          "type": "bool"
        }
      ],
      "stateMutability": "view",
      "type": "function"
    },
    {
      "inputs": [],
      "name": "token",
      "outputs": [
        {
          "internalType": "contract Token",
          "name": "",
          "type": "address"
        }
      ],
      "stateMutability": "view",
      "type": "function"
    },
    {
      "inputs": [],
      "name": "tokensSold",
      "outputs": [
        {
          "internalType": "uint256",
          "name": "",
          "type": "uint256"
        }
      ],
      "stateMutability": "view",
      "type": "function"
    },
    {
      "inputs": [
        {
          "internalType": "uint256",
          "name": "_numberOfTokens",
          "type": "uint256"
        }
      ],
      "name": "buyTokens",
      "outputs": [],
      "stateMutability": "payable",
      "type": "function"
    },
    {
      "inputs": [
        {
          "internalType": "uint256",
          "name": "amount",
          "type": "uint256"
        }
      ],
      "name": "refund",
      "outputs": [],
      "stateMutability": "payable",
      "type": "function"
    },
    {
      "inputs": [],
      "name": "endSale",
      "outputs": [],
      "stateMutability": "payable",
      "type": "function"
    }
  ],
  "bytecode": "0x60806040523480156200001157600080fd5b50604051620013943803806200139483398181016040528101906200003791906200014b565b806000806101000a81548173ffffffffffffffffffffffffffffffffffffffff021916908373ffffffffffffffffffffffffffffffffffffffff16021790555083600160006101000a81548173ffffffffffffffffffffffffffffffffffffffff021916908373ffffffffffffffffffffffffffffffffffffffff16021790555082600281905550816004819055506000600560006101000a81548160ff0219169083151502179055506000600560016101000a81548160ff0219169083151502179055505050505062000262565b600081519050620001178162000214565b92915050565b6000815190506200012e816200022e565b92915050565b600081519050620001458162000248565b92915050565b600080600080608085870312156200016857620001676200020f565b5b600062000178878288016200011d565b94505060206200018b8782880162000134565b93505060406200019e8782880162000134565b9250506060620001b18782880162000106565b91505092959194509250565b6000620001ca82620001e5565b9050919050565b6000620001de82620001bd565b9050919050565b600073ffffffffffffffffffffffffffffffffffffffff82169050919050565b6000819050919050565b600080fd5b6200021f81620001bd565b81146200022b57600080fd5b50565b6200023981620001d1565b81146200024557600080fd5b50565b620002538162000205565b81146200025f57600080fd5b50565b61112280620002726000396000f3fe6080604052600436106100865760003560e01c80639b8906ae116100595780639b8906ae146100f8578063a035b1fe14610123578063a226b8ae1461014e578063c85501bb14610179578063fc0c546a146101a457610086565b8063278ecde11461008b5780633610724e146100a7578063380d831b146100c3578063518ab2a8146100cd575b600080fd5b6100a560048036038101906100a09190610a93565b6101cf565b005b6100c160048036038101906100bc9190610a93565b610381565b005b6100cb6105c5565b005b3480156100d957600080fd5b506100e2610950565b6040516100ef9190610ce7565b60405180910390f35b34801561010457600080fd5b5061010d610956565b60405161011a9190610c31565b60405180910390f35b34801561012f57600080fd5b50610138610969565b6040516101459190610ce7565b60405180910390f35b34801561015a57600080fd5b5061016361096f565b6040516101709190610c31565b60405180910390f35b34801561018557600080fd5b5061018e610982565b60405161019b9190610ce7565b60405180910390f35b3480156101b057600080fd5b506101b9610988565b6040516101c69190610c4c565b60405180910390f35b600033905060011515600560009054906101000a900460ff1615151461022a576040517f08c379a000000000000000000000000000000000000000000000000000000000815260040161022190610ca7565b60405180910390fd5b600160009054906101000a900473ffffffffffffffffffffffffffffffffffffffff1673ffffffffffffffffffffffffffffffffffffffff1663410085df82670de0b6b3a76400008561027d9190610d9a565b6040518363ffffffff1660e01b815260040161029a929190610bdf565b602060405180830381600087803b1580156102b457600080fd5b505af11580156102c8573d6000803e3d6000fd5b505050506040513d601f19601f820116820180604052508101906102ec9190610a66565b61032b576040517f08c379a000000000000000000000000000000000000000000000000000000000815260040161032290610c87565b60405180910390fd5b8073ffffffffffffffffffffffffffffffffffffffff166108fc610351846002546109ae565b9081150290604051600060405180830381858888f1935050505015801561037c573d6000803e3d6000fd5b505050565b60001515600560019054906101000a900460ff161515146103a157600080fd5b6103ad816002546109ae565b34146103ee576040517f08c379a00000000000000000000000000000000000000000000000000000000081526004016103e590610c67565b60405180910390fd5b80600160009054906101000a900473ffffffffffffffffffffffffffffffffffffffff1673ffffffffffffffffffffffffffffffffffffffff166370a08231306040518263ffffffff1660e01b815260040161044a9190610bc4565b60206040518083038186803b15801561046257600080fd5b505afa158015610476573d6000803e3d6000fd5b505050506040513d601f19601f8201168201806040525081019061049a9190610ac0565b10156104a557600080fd5b600160009054906101000a900473ffffffffffffffffffffffffffffffffffffffff1673ffffffffffffffffffffffffffffffffffffffff1663a9059cbb33670de0b6b3a7640000846104f89190610d9a565b6040518363ffffffff1660e01b8152600401610515929190610c08565b602060405180830381600087803b15801561052f57600080fd5b505af1158015610543573d6000803e3d6000fd5b505050506040513d601f19601f820116820180604052508101906105679190610a66565b61057057600080fd5b80600360008282546105829190610d13565b925050819055507f5e5e995ce3133561afceaa51a9a154d5db228cd7525d34df5185582c18d3df0933826040516105ba929190610c08565b60405180910390a150565b60008054906101000a900473ffffffffffffffffffffffffffffffffffffffff1673ffffffffffffffffffffffffffffffffffffffff163373ffffffffffffffffffffffffffffffffffffffff1614610653576040517f08c379a000000000000000000000000000000000000000000000000000000000815260040161064a90610cc7565b60405180910390fd5b600454600354106108d157600160009054906101000a900473ffffffffffffffffffffffffffffffffffffffff1673ffffffffffffffffffffffffffffffffffffffff1663a9059cbb60008054906101000a900473ffffffffffffffffffffffffffffffffffffffff16600160009054906101000a900473ffffffffffffffffffffffffffffffffffffffff1673ffffffffffffffffffffffffffffffffffffffff166370a08231306040518263ffffffff1660e01b81526004016107189190610bc4565b60206040518083038186803b15801561073057600080fd5b505afa158015610744573d6000803e3d6000fd5b505050506040513d601f19601f820116820180604052508101906107689190610ac0565b6040518363ffffffff1660e01b8152600401610785929190610c08565b602060405180830381600087803b15801561079f57600080fd5b505af11580156107b3573d6000803e3d6000fd5b505050506040513d601f19601f820116820180604052508101906107d79190610a66565b6107e057600080fd5b6000600160009054906101000a900473ffffffffffffffffffffffffffffffffffffffff1673ffffffffffffffffffffffffffffffffffffffff1663f851a4406040518163ffffffff1660e01b815260040160206040518083038186803b15801561084a57600080fd5b505afa15801561085e573d6000803e3d6000fd5b505050506040513d601f19601f820116820180604052508101906108829190610a39565b90508073ffffffffffffffffffffffffffffffffffffffff166108fc479081150290604051600060405180830381858888f193505050501580156108ca573d6000803e3d6000fd5b50506108ed565b6001600560006101000a81548160ff0219169083151502179055505b6001600560016101000a81548160ff0219169083151502179055507f4ac7860777a00f36d6a1894a83e87800b79c8f7a42bac9e685ffe47a27c303f2600560009054906101000a900460ff166040516109469190610c31565b60405180910390a1565b60035481565b600560019054906101000a900460ff1681565b60025481565b600560009054906101000a900460ff1681565b60045481565b600160009054906101000a900473ffffffffffffffffffffffffffffffffffffffff1681565b6000808214806109d65750828283856109c79190610d9a565b9250826109d49190610d69565b145b6109df57600080fd5b92915050565b6000815190506109f4816110a7565b92915050565b600081519050610a09816110be565b92915050565b600081359050610a1e816110d5565b92915050565b600081519050610a33816110d5565b92915050565b600060208284031215610a4f57610a4e610ef4565b5b6000610a5d848285016109e5565b91505092915050565b600060208284031215610a7c57610a7b610ef4565b5b6000610a8a848285016109fa565b91505092915050565b600060208284031215610aa957610aa8610ef4565b5b6000610ab784828501610a0f565b91505092915050565b600060208284031215610ad657610ad5610ef4565b5b6000610ae484828501610a24565b91505092915050565b610af681610e3c565b82525050565b610b0581610df4565b82525050565b610b1481610e06565b82525050565b610b2381610e4e565b82525050565b6000610b36607683610d02565b9150610b4182610ef9565b608082019050919050565b6000610b59604f83610d02565b9150610b6482610f94565b606082019050919050565b6000610b7c603383610d02565b9150610b8782611009565b604082019050919050565b6000610b9f602783610d02565b9150610baa82611058565b604082019050919050565b610bbe81610e32565b82525050565b6000602082019050610bd96000830184610afc565b92915050565b6000604082019050610bf46000830185610aed565b610c016020830184610bb5565b9392505050565b6000604082019050610c1d6000830185610afc565b610c2a6020830184610bb5565b9392505050565b6000602082019050610c466000830184610b0b565b92915050565b6000602082019050610c616000830184610b1a565b92915050565b60006020820190508181036000830152610c8081610b29565b9050919050565b60006020820190508181036000830152610ca081610b4c565b9050919050565b60006020820190508181036000830152610cc081610b6f565b9050919050565b60006020820190508181036000830152610ce081610b92565b9050919050565b6000602082019050610cfc6000830184610bb5565b92915050565b600082825260208201905092915050565b6000610d1e82610e32565b9150610d2983610e32565b9250827fffffffffffffffffffffffffffffffffffffffffffffffffffffffffffffffff03821115610d5e57610d5d610e96565b5b828201905092915050565b6000610d7482610e32565b9150610d7f83610e32565b925082610d8f57610d8e610ec5565b5b828204905092915050565b6000610da582610e32565b9150610db083610e32565b9250817fffffffffffffffffffffffffffffffffffffffffffffffffffffffffffffffff0483118215151615610de957610de8610e96565b5b828202905092915050565b6000610dff82610e12565b9050919050565b60008115159050919050565b600073ffffffffffffffffffffffffffffffffffffffff82169050919050565b6000819050919050565b6000610e4782610e72565b9050919050565b6000610e5982610e60565b9050919050565b6000610e6b82610e12565b9050919050565b6000610e7d82610e84565b9050919050565b6000610e8f82610e12565b9050919050565b7f4e487b7100000000000000000000000000000000000000000000000000000000600052601160045260246000fd5b7f4e487b7100000000000000000000000000000000000000000000000000000000600052601260045260246000fd5b600080fd5b7f506c6561736520656e7375726520746861742063616c6c2076616c756520697360008201527f207468652070726f64756374206f6620746865206e756d626572206f6620746f60208201527f6b656e7320796f75207769736820746f2070757263686173652c20616e64207460408201527f6865207072696365206f662074686520746f6b656e2e00000000000000000000606082015250565b7f596f75206861766520696e73756666696369656e7420746f6b656e7320666f7260008201527f2074686973207472616e73616374696f6e2e20506c6561736520656e7465722060208201527f61206c6f77657220616d6f756e742e0000000000000000000000000000000000604082015250565b7f53616c6520686173206e6f742079657420656e6465642e20526566756e64206f60008201527f7074696f6e206e6f7420617661696c61626c6500000000000000000000000000602082015250565b7f4f6e6c79207468652061646d696e206163636f756e742063616e20656e64207460008201527f68652049434f2e00000000000000000000000000000000000000000000000000602082015250565b6110b081610df4565b81146110bb57600080fd5b50565b6110c781610e06565b81146110d257600080fd5b50565b6110de81610e32565b81146110e957600080fd5b5056fea26469706673582212203f3a72ff0fe505eb3c0289920033b05b45ff439b8d5354e2ddeac04d8272d98f64736f6c63430008060033",
  "immutableReferences": {},
  "source": "// SPDX-License-Identifier: MIT\r\npragma solidity ^0.8.6;\r\n\r\nimport \"./Token.sol\";\r\n\r\ncontract ICO {\r\n    address admin;\r\n    Token public token;\r\n    uint256 public price;\r\n    uint256 public tokensSold;\r\n    uint256 public minThreshold;\r\n    bool public saleFailed;\r\n    bool public saleEnded;\r\n\r\n    event Sell(address _buyer, uint256 _amount);\r\n    event SaleEnded(bool saleFailed);\r\n\r\n    constructor (Token _tokenContract, uint256 _tokenPrice, uint256 _min, address owner) {\r\n        admin = owner;\r\n        token = _tokenContract;\r\n        price = _tokenPrice;\r\n        minThreshold = _min;\r\n        saleFailed = false;\r\n        saleEnded = false;\r\n    }\r\n\r\n    function multiply(uint x, uint y) internal pure returns (uint z) {\r\n        // This is just a safe multiplication - reminiscient of that in DSMath library. \r\n        // Not entirely sure of it's necessity but is proper practice.\r\n        require(y == 0 || (z = x * y) / y == x);\r\n    }\r\n\r\n    function buyTokens(uint256 _numberOfTokens) public payable {\r\n        require(saleEnded == false);\r\n        require(msg.value == multiply(_numberOfTokens, price), 'Please ensure that call value is the product of the number of tokens you wish to purchase, and the price of the token.');\r\n        require(token.balanceOf(address(this)) >= _numberOfTokens);\r\n        require(token.transfer(msg.sender, _numberOfTokens * 10 **18));\r\n\r\n        tokensSold += _numberOfTokens;\r\n\r\n        emit Sell(msg.sender, _numberOfTokens);\r\n    }\r\n\r\n    function refund(uint256 amount) public payable {\r\n        address payable account = payable(msg.sender);\r\n        require(saleFailed == true, 'Sale has not yet ended. Refund option not available');\r\n        require(token.refund(account, amount * 10 ** 18),'You have insufficient tokens for this transaction. Please enter a lower amount.');\r\n        account.transfer(multiply(amount,price));\r\n    }\r\n\r\n    function endSale() public payable {\r\n        require(msg.sender == admin, 'Only the admin account can end the ICO.');\r\n\r\n        if (tokensSold >= minThreshold) {\r\n            require(token.transfer(admin, token.balanceOf(address(this))));\r\n\r\n            // Just transfer the balance to the admin\r\n            address payable tokenAdmin = payable(token.admin());\r\n            tokenAdmin.transfer(address(this).balance);\r\n        } else {\r\n            saleFailed = true;\r\n        }\r\n        saleEnded = true;\r\n        emit SaleEnded(saleFailed);\r\n\r\n    }\r\n}",
  "sourcePath": "C:\\Users\\alfie\\OneDrive\\Desktop\\FTGP\\BackEnd\\token_sale\\contracts\\ICO.sol",
  "compiler": {
    "name": "solc",
    "version": "0.8.6+commit.11564f7e.Emscripten.clang"
  },
  "schemaVersion": "3.4.6",
  "updatedAt": "2022-04-13T13:53:25.382Z",
  "devdoc": {
    "kind": "dev",
    "methods": {},
    "version": 1
  },
  "userdoc": {
    "kind": "user",
    "methods": {},
    "version": 1
  }
}