{
  "contractName": "ICO",
  "abi": [
    {
      "inputs": [
        {
          "internalType": "contract Token",
          "name": "_tokenContract",
          "type": "address"
        },
        {
          "internalType": "uint256",
          "name": "_tokenPrice",
          "type": "uint256"
        },
        {
          "internalType": "uint256",
          "name": "_min",
          "type": "uint256"
        },
        {
          "internalType": "address",
          "name": "owner",
          "type": "address"
        }
      ],
      "stateMutability": "nonpayable",
      "type": "constructor"
    },
    {
      "anonymous": false,
      "inputs": [
        {
          "indexed": false,
          "internalType": "address",
          "name": "_refundee",
          "type": "address"
        },
        {
          "indexed": false,
          "internalType": "uint256",
          "name": "amount",
          "type": "uint256"
        }
      ],
      "name": "Refund",
      "type": "event"
    },
    {
      "anonymous": false,
      "inputs": [
        {
          "indexed": false,
          "internalType": "bool",
          "name": "saleFailed",
          "type": "bool"
        }
      ],
      "name": "SaleEnded",
      "type": "event"
    },
    {
      "anonymous": false,
      "inputs": [
        {
          "indexed": false,
          "internalType": "address",
          "name": "_buyer",
          "type": "address"
        },
        {
          "indexed": false,
          "internalType": "uint256",
          "name": "_amount",
          "type": "uint256"
        }
      ],
      "name": "Sell",
      "type": "event"
    },
    {
      "inputs": [],
      "name": "minThreshold",
      "outputs": [
        {
          "internalType": "uint256",
          "name": "",
          "type": "uint256"
        }
      ],
      "stateMutability": "view",
      "type": "function"
    },
    {
      "inputs": [],
      "name": "price",
      "outputs": [
        {
          "internalType": "uint256",
          "name": "",
          "type": "uint256"
        }
      ],
      "stateMutability": "view",
      "type": "function"
    },
    {
      "inputs": [],
      "name": "saleEnded",
      "outputs": [
        {
          "internalType": "bool",
          "name": "",
          "type": "bool"
        }
      ],
      "stateMutability": "view",
      "type": "function"
    },
    {
      "inputs": [],
      "name": "saleFailed",
      "outputs": [
        {
          "internalType": "bool",
          "name": "",
          "type": "bool"
        }
      ],
      "stateMutability": "view",
      "type": "function"
    },
    {
      "inputs": [],
      "name": "token",
      "outputs": [
        {
          "internalType": "contract Token",
          "name": "",
          "type": "address"
        }
      ],
      "stateMutability": "view",
      "type": "function"
    },
    {
      "inputs": [],
      "name": "tokensSold",
      "outputs": [
        {
          "internalType": "uint256",
          "name": "",
          "type": "uint256"
        }
      ],
      "stateMutability": "view",
      "type": "function"
    },
    {
      "inputs": [
        {
          "internalType": "uint256",
          "name": "_numberOfTokens",
          "type": "uint256"
        }
      ],
      "name": "buyTokens",
      "outputs": [],
      "stateMutability": "payable",
      "type": "function"
    },
    {
      "inputs": [
        {
          "internalType": "uint256",
          "name": "amount",
          "type": "uint256"
        }
      ],
      "name": "refund",
      "outputs": [],
      "stateMutability": "payable",
      "type": "function"
    },
    {
      "inputs": [],
      "name": "endSale",
      "outputs": [],
      "stateMutability": "payable",
      "type": "function"
    }
  ],
  "bytecode": "0x60806040523480156200001157600080fd5b506040516200142d3803806200142d83398181016040528101906200003791906200014b565b806000806101000a81548173ffffffffffffffffffffffffffffffffffffffff021916908373ffffffffffffffffffffffffffffffffffffffff16021790555083600160006101000a81548173ffffffffffffffffffffffffffffffffffffffff021916908373ffffffffffffffffffffffffffffffffffffffff16021790555082600281905550816004819055506000600560006101000a81548160ff0219169083151502179055506000600560016101000a81548160ff0219169083151502179055505050505062000262565b600081519050620001178162000214565b92915050565b6000815190506200012e816200022e565b92915050565b600081519050620001458162000248565b92915050565b600080600080608085870312156200016857620001676200020f565b5b600062000178878288016200011d565b94505060206200018b8782880162000134565b93505060406200019e8782880162000134565b9250506060620001b18782880162000106565b91505092959194509250565b6000620001ca82620001e5565b9050919050565b6000620001de82620001bd565b9050919050565b600073ffffffffffffffffffffffffffffffffffffffff82169050919050565b6000819050919050565b600080fd5b6200021f81620001bd565b81146200022b57600080fd5b50565b6200023981620001d1565b81146200024557600080fd5b50565b620002538162000205565b81146200025f57600080fd5b50565b6111bb80620002726000396000f3fe6080604052600436106100865760003560e01c80639b8906ae116100595780639b8906ae146100f8578063a035b1fe14610123578063a226b8ae1461014e578063c85501bb14610179578063fc0c546a146101a457610086565b8063278ecde11461008b5780633610724e146100a7578063380d831b146100c3578063518ab2a8146100cd575b600080fd5b6100a560048036038101906100a09190610af8565b6101cf565b005b6100c160048036038101906100bc9190610af8565b6103d3565b005b6100cb61062a565b005b3480156100d957600080fd5b506100e26109b5565b6040516100ef9190610d4c565b60405180910390f35b34801561010457600080fd5b5061010d6109bb565b60405161011a9190610c96565b60405180910390f35b34801561012f57600080fd5b506101386109ce565b6040516101459190610d4c565b60405180910390f35b34801561015a57600080fd5b506101636109d4565b6040516101709190610c96565b60405180910390f35b34801561018557600080fd5b5061018e6109e7565b60405161019b9190610d4c565b60405180910390f35b3480156101b057600080fd5b506101b96109ed565b6040516101c69190610cb1565b60405180910390f35b600033905060011515600560009054906101000a900460ff1615151461022a576040517f08c379a000000000000000000000000000000000000000000000000000000000815260040161022190610d0c565b60405180910390fd5b600160009054906101000a900473ffffffffffffffffffffffffffffffffffffffff1673ffffffffffffffffffffffffffffffffffffffff1663410085df82670de0b6b3a76400008561027d9190610dff565b6040518363ffffffff1660e01b815260040161029a929190610c44565b602060405180830381600087803b1580156102b457600080fd5b505af11580156102c8573d6000803e3d6000fd5b505050506040513d601f19601f820116820180604052508101906102ec9190610acb565b61032b576040517f08c379a000000000000000000000000000000000000000000000000000000000815260040161032290610cec565b60405180910390fd5b8073ffffffffffffffffffffffffffffffffffffffff166108fc61035184600254610a13565b9081150290604051600060405180830381858888f1935050505015801561037c573d6000803e3d6000fd5b50816003600082825461038f9190610e59565b925050819055507fbb28353e4598c3b9199101a66e0989549b659a59a54d2c27fbb183f1932c8e6d33836040516103c7929190610c6d565b60405180910390a15050565b60001515600560019054906101000a900460ff161515146103f357600080fd5b6103ff81600254610a13565b3414610440576040517f08c379a000000000000000000000000000000000000000000000000000000000815260040161043790610ccc565b60405180910390fd5b670de0b6b3a7640000816104549190610dff565b600160009054906101000a900473ffffffffffffffffffffffffffffffffffffffff1673ffffffffffffffffffffffffffffffffffffffff166370a08231306040518263ffffffff1660e01b81526004016104af9190610c29565b60206040518083038186803b1580156104c757600080fd5b505afa1580156104db573d6000803e3d6000fd5b505050506040513d601f19601f820116820180604052508101906104ff9190610b25565b101561050a57600080fd5b600160009054906101000a900473ffffffffffffffffffffffffffffffffffffffff1673ffffffffffffffffffffffffffffffffffffffff1663a9059cbb33670de0b6b3a76400008461055d9190610dff565b6040518363ffffffff1660e01b815260040161057a929190610c6d565b602060405180830381600087803b15801561059457600080fd5b505af11580156105a8573d6000803e3d6000fd5b505050506040513d601f19601f820116820180604052508101906105cc9190610acb565b6105d557600080fd5b80600360008282546105e79190610d78565b925050819055507f5e5e995ce3133561afceaa51a9a154d5db228cd7525d34df5185582c18d3df09338260405161061f929190610c6d565b60405180910390a150565b60008054906101000a900473ffffffffffffffffffffffffffffffffffffffff1673ffffffffffffffffffffffffffffffffffffffff163373ffffffffffffffffffffffffffffffffffffffff16146106b8576040517f08c379a00000000000000000000000000000000000000000000000000000000081526004016106af90610d2c565b60405180910390fd5b6004546003541061093657600160009054906101000a900473ffffffffffffffffffffffffffffffffffffffff1673ffffffffffffffffffffffffffffffffffffffff1663a9059cbb60008054906101000a900473ffffffffffffffffffffffffffffffffffffffff16600160009054906101000a900473ffffffffffffffffffffffffffffffffffffffff1673ffffffffffffffffffffffffffffffffffffffff166370a08231306040518263ffffffff1660e01b815260040161077d9190610c29565b60206040518083038186803b15801561079557600080fd5b505afa1580156107a9573d6000803e3d6000fd5b505050506040513d601f19601f820116820180604052508101906107cd9190610b25565b6040518363ffffffff1660e01b81526004016107ea929190610c6d565b602060405180830381600087803b15801561080457600080fd5b505af1158015610818573d6000803e3d6000fd5b505050506040513d601f19601f8201168201806040525081019061083c9190610acb565b61084557600080fd5b6000600160009054906101000a900473ffffffffffffffffffffffffffffffffffffffff1673ffffffffffffffffffffffffffffffffffffffff1663f851a4406040518163ffffffff1660e01b815260040160206040518083038186803b1580156108af57600080fd5b505afa1580156108c3573d6000803e3d6000fd5b505050506040513d601f19601f820116820180604052508101906108e79190610a9e565b90508073ffffffffffffffffffffffffffffffffffffffff166108fc479081150290604051600060405180830381858888f1935050505015801561092f573d6000803e3d6000fd5b5050610952565b6001600560006101000a81548160ff0219169083151502179055505b6001600560016101000a81548160ff0219169083151502179055507f4ac7860777a00f36d6a1894a83e87800b79c8f7a42bac9e685ffe47a27c303f2600560009054906101000a900460ff166040516109ab9190610c96565b60405180910390a1565b60035481565b600560019054906101000a900460ff1681565b60025481565b600560009054906101000a900460ff1681565b60045481565b600160009054906101000a900473ffffffffffffffffffffffffffffffffffffffff1681565b600080821480610a3b575082828385610a2c9190610dff565b925082610a399190610dce565b145b610a4457600080fd5b92915050565b600081519050610a5981611140565b92915050565b600081519050610a6e81611157565b92915050565b600081359050610a838161116e565b92915050565b600081519050610a988161116e565b92915050565b600060208284031215610ab457610ab3610f8d565b5b6000610ac284828501610a4a565b91505092915050565b600060208284031215610ae157610ae0610f8d565b5b6000610aef84828501610a5f565b91505092915050565b600060208284031215610b0e57610b0d610f8d565b5b6000610b1c84828501610a74565b91505092915050565b600060208284031215610b3b57610b3a610f8d565b5b6000610b4984828501610a89565b91505092915050565b610b5b81610ed5565b82525050565b610b6a81610e8d565b82525050565b610b7981610e9f565b82525050565b610b8881610ee7565b82525050565b6000610b9b607683610d67565b9150610ba682610f92565b608082019050919050565b6000610bbe604f83610d67565b9150610bc98261102d565b606082019050919050565b6000610be1603383610d67565b9150610bec826110a2565b604082019050919050565b6000610c04602783610d67565b9150610c0f826110f1565b604082019050919050565b610c2381610ecb565b82525050565b6000602082019050610c3e6000830184610b61565b92915050565b6000604082019050610c596000830185610b52565b610c666020830184610c1a565b9392505050565b6000604082019050610c826000830185610b61565b610c8f6020830184610c1a565b9392505050565b6000602082019050610cab6000830184610b70565b92915050565b6000602082019050610cc66000830184610b7f565b92915050565b60006020820190508181036000830152610ce581610b8e565b9050919050565b60006020820190508181036000830152610d0581610bb1565b9050919050565b60006020820190508181036000830152610d2581610bd4565b9050919050565b60006020820190508181036000830152610d4581610bf7565b9050919050565b6000602082019050610d616000830184610c1a565b92915050565b600082825260208201905092915050565b6000610d8382610ecb565b9150610d8e83610ecb565b9250827fffffffffffffffffffffffffffffffffffffffffffffffffffffffffffffffff03821115610dc357610dc2610f2f565b5b828201905092915050565b6000610dd982610ecb565b9150610de483610ecb565b925082610df457610df3610f5e565b5b828204905092915050565b6000610e0a82610ecb565b9150610e1583610ecb565b9250817fffffffffffffffffffffffffffffffffffffffffffffffffffffffffffffffff0483118215151615610e4e57610e4d610f2f565b5b828202905092915050565b6000610e6482610ecb565b9150610e6f83610ecb565b925082821015610e8257610e81610f2f565b5b828203905092915050565b6000610e9882610eab565b9050919050565b60008115159050919050565b600073ffffffffffffffffffffffffffffffffffffffff82169050919050565b6000819050919050565b6000610ee082610f0b565b9050919050565b6000610ef282610ef9565b9050919050565b6000610f0482610eab565b9050919050565b6000610f1682610f1d565b9050919050565b6000610f2882610eab565b9050919050565b7f4e487b7100000000000000000000000000000000000000000000000000000000600052601160045260246000fd5b7f4e487b7100000000000000000000000000000000000000000000000000000000600052601260045260246000fd5b600080fd5b7f506c6561736520656e7375726520746861742063616c6c2076616c756520697360008201527f207468652070726f64756374206f6620746865206e756d626572206f6620746f60208201527f6b656e7320796f75207769736820746f2070757263686173652c20616e64207460408201527f6865207072696365206f662074686520746f6b656e2e00000000000000000000606082015250565b7f596f75206861766520696e73756666696369656e7420746f6b656e7320666f7260008201527f2074686973207472616e73616374696f6e2e20506c6561736520656e7465722060208201527f61206c6f77657220616d6f756e742e0000000000000000000000000000000000604082015250565b7f53616c6520686173206e6f742079657420656e6465642e20526566756e64206f60008201527f7074696f6e206e6f7420617661696c61626c6500000000000000000000000000602082015250565b7f4f6e6c79207468652061646d696e206163636f756e742063616e20656e64207460008201527f68652049434f2e00000000000000000000000000000000000000000000000000602082015250565b61114981610e8d565b811461115457600080fd5b50565b61116081610e9f565b811461116b57600080fd5b50565b61117781610ecb565b811461118257600080fd5b5056fea26469706673582212200de92c15aed057611c524dfa317db7461c9c8ee04a166687c374fc9af0dd492f64736f6c63430008060033",
  "immutableReferences": {},
  "source": "// SPDX-License-Identifier: MIT\r\npragma solidity ^0.8.6;\r\n\r\nimport \"./Token.sol\";\r\n\r\ncontract ICO {\r\n    address admin;\r\n    Token public token;\r\n    uint256 public price;\r\n    uint256 public tokensSold;\r\n    uint256 public minThreshold;\r\n    bool public saleFailed;\r\n    bool public saleEnded;\r\n\r\n    event Sell(address _buyer, uint256 _amount);\r\n    event SaleEnded(bool saleFailed);\r\n    event Refund(address _refundee, uint256 amount);\r\n\r\n    constructor (Token _tokenContract, uint256 _tokenPrice, uint256 _min, address owner) {\r\n        admin = owner;\r\n        token = _tokenContract;\r\n        price = _tokenPrice;\r\n        minThreshold = _min;\r\n        saleFailed = false;\r\n        saleEnded = false;\r\n    }\r\n\r\n    function multiply(uint x, uint y) internal pure returns (uint z) {\r\n        // This is just a safe multiplication - reminiscient of that in DSMath library. \r\n        // Not entirely sure of it's necessity but is proper practice.\r\n        require(y == 0 || (z = x * y) / y == x);\r\n    }\r\n\r\n    function buyTokens(uint256 _numberOfTokens) public payable {\r\n        require(saleEnded == false);\r\n        require(msg.value == multiply(_numberOfTokens, price), 'Please ensure that call value is the product of the number of tokens you wish to purchase, and the price of the token.');\r\n        require(token.balanceOf(address(this)) >= _numberOfTokens * 10 ** 18);\r\n        require(token.transfer(msg.sender, _numberOfTokens * 10 **18));\r\n\r\n        tokensSold += _numberOfTokens;\r\n\r\n        emit Sell(msg.sender, _numberOfTokens);\r\n    }\r\n\r\n    function refund(uint256 amount) public payable {\r\n        address payable account = payable(msg.sender);\r\n        require(saleFailed == true, 'Sale has not yet ended. Refund option not available');\r\n        require(token.refund(account, amount * 10 ** 18),'You have insufficient tokens for this transaction. Please enter a lower amount.');\r\n        account.transfer(multiply(amount,price));\r\n\r\n        tokensSold -= amount;\r\n        emit Refund(msg.sender, amount);\r\n    }\r\n\r\n    function endSale() public payable {\r\n        require(msg.sender == admin, 'Only the admin account can end the ICO.');\r\n\r\n        if (tokensSold >= minThreshold) {\r\n            require(token.transfer(admin, token.balanceOf(address(this))));\r\n\r\n            // Just transfer the balance to the admin\r\n            address payable tokenAdmin = payable(token.admin());\r\n            tokenAdmin.transfer(address(this).balance);\r\n        } else {\r\n            saleFailed = true;\r\n        }\r\n        saleEnded = true;\r\n        emit SaleEnded(saleFailed);\r\n\r\n    }\r\n}",
  "sourcePath": "C:\\Users\\alfie\\OneDrive\\Desktop\\FTGP\\BackEnd\\token_sale\\contracts\\ICO.sol",
  "compiler": {
    "name": "solc",
    "version": "0.8.6+commit.11564f7e.Emscripten.clang"
  },
  "schemaVersion": "3.4.6",
  "updatedAt": "2022-04-18T19:07:31.530Z",
  "devdoc": {
    "kind": "dev",
    "methods": {},
    "version": 1
  },
  "userdoc": {
    "kind": "user",
    "methods": {},
    "version": 1
  }
}