{
  "contractName": "Token",
  "abi": [
    {
      "inputs": [
        {
          "internalType": "string",
          "name": "name",
          "type": "string"
        },
        {
          "internalType": "string",
          "name": "symbol",
          "type": "string"
        },
        {
          "internalType": "uint256",
          "name": "initialSupply",
          "type": "uint256"
        },
        {
          "internalType": "address",
          "name": "_owner",
          "type": "address"
        }
      ],
      "stateMutability": "nonpayable",
      "type": "constructor"
    },
    {
      "anonymous": false,
      "inputs": [
        {
          "indexed": true,
          "internalType": "address",
          "name": "owner",
          "type": "address"
        },
        {
          "indexed": true,
          "internalType": "address",
          "name": "spender",
          "type": "address"
        },
        {
          "indexed": false,
          "internalType": "uint256",
          "name": "value",
          "type": "uint256"
        }
      ],
      "name": "Approval",
      "type": "event"
    },
    {
      "anonymous": false,
      "inputs": [
        {
          "indexed": true,
          "internalType": "address",
          "name": "from",
          "type": "address"
        },
        {
          "indexed": true,
          "internalType": "address",
          "name": "to",
          "type": "address"
        },
        {
          "indexed": false,
          "internalType": "uint256",
          "name": "value",
          "type": "uint256"
        }
      ],
      "name": "Transfer",
      "type": "event"
    },
    {
      "inputs": [],
      "name": "admin",
      "outputs": [
        {
          "internalType": "address",
          "name": "",
          "type": "address"
        }
      ],
      "stateMutability": "view",
      "type": "function"
    },
    {
      "inputs": [
        {
          "internalType": "address",
          "name": "owner",
          "type": "address"
        },
        {
          "internalType": "address",
          "name": "spender",
          "type": "address"
        }
      ],
      "name": "allowance",
      "outputs": [
        {
          "internalType": "uint256",
          "name": "",
          "type": "uint256"
        }
      ],
      "stateMutability": "view",
      "type": "function"
    },
    {
      "inputs": [
        {
          "internalType": "address",
          "name": "spender",
          "type": "address"
        },
        {
          "internalType": "uint256",
          "name": "amount",
          "type": "uint256"
        }
      ],
      "name": "approve",
      "outputs": [
        {
          "internalType": "bool",
          "name": "",
          "type": "bool"
        }
      ],
      "stateMutability": "nonpayable",
      "type": "function"
    },
    {
      "inputs": [
        {
          "internalType": "address",
          "name": "account",
          "type": "address"
        }
      ],
      "name": "balanceOf",
      "outputs": [
        {
          "internalType": "uint256",
          "name": "",
          "type": "uint256"
        }
      ],
      "stateMutability": "view",
      "type": "function"
    },
    {
      "inputs": [],
      "name": "decimals",
      "outputs": [
        {
          "internalType": "uint8",
          "name": "",
          "type": "uint8"
        }
      ],
      "stateMutability": "view",
      "type": "function"
    },
    {
      "inputs": [
        {
          "internalType": "address",
          "name": "spender",
          "type": "address"
        },
        {
          "internalType": "uint256",
          "name": "subtractedValue",
          "type": "uint256"
        }
      ],
      "name": "decreaseAllowance",
      "outputs": [
        {
          "internalType": "bool",
          "name": "",
          "type": "bool"
        }
      ],
      "stateMutability": "nonpayable",
      "type": "function"
    },
    {
      "inputs": [
        {
          "internalType": "address",
          "name": "spender",
          "type": "address"
        },
        {
          "internalType": "uint256",
          "name": "addedValue",
          "type": "uint256"
        }
      ],
      "name": "increaseAllowance",
      "outputs": [
        {
          "internalType": "bool",
          "name": "",
          "type": "bool"
        }
      ],
      "stateMutability": "nonpayable",
      "type": "function"
    },
    {
      "inputs": [],
      "name": "name",
      "outputs": [
        {
          "internalType": "string",
          "name": "",
          "type": "string"
        }
      ],
      "stateMutability": "view",
      "type": "function"
    },
    {
      "inputs": [],
      "name": "symbol",
      "outputs": [
        {
          "internalType": "string",
          "name": "",
          "type": "string"
        }
      ],
      "stateMutability": "view",
      "type": "function"
    },
    {
      "inputs": [],
      "name": "totalSupply",
      "outputs": [
        {
          "internalType": "uint256",
          "name": "",
          "type": "uint256"
        }
      ],
      "stateMutability": "view",
      "type": "function"
    },
    {
      "inputs": [
        {
          "internalType": "address",
          "name": "to",
          "type": "address"
        },
        {
          "internalType": "uint256",
          "name": "amount",
          "type": "uint256"
        }
      ],
      "name": "transfer",
      "outputs": [
        {
          "internalType": "bool",
          "name": "",
          "type": "bool"
        }
      ],
      "stateMutability": "nonpayable",
      "type": "function"
    },
    {
      "inputs": [
        {
          "internalType": "address",
          "name": "from",
          "type": "address"
        },
        {
          "internalType": "address",
          "name": "to",
          "type": "address"
        },
        {
          "internalType": "uint256",
          "name": "amount",
          "type": "uint256"
        }
      ],
      "name": "transferFrom",
      "outputs": [
        {
          "internalType": "bool",
          "name": "",
          "type": "bool"
        }
      ],
      "stateMutability": "nonpayable",
      "type": "function"
    },
    {
      "inputs": [
        {
          "internalType": "address",
          "name": "account",
          "type": "address"
        },
        {
          "internalType": "uint256",
          "name": "amount",
          "type": "uint256"
        }
      ],
      "name": "refund",
      "outputs": [
        {
          "internalType": "bool",
          "name": "",
          "type": "bool"
        }
      ],
      "stateMutability": "nonpayable",
      "type": "function"
    }
  ],
  "bytecode": "0x60806040523480156200001157600080fd5b5060405162001f6938038062001f698339818101604052810190620000379190620003be565b838381600390805190602001906200005192919062000262565b5080600490805190602001906200006a92919062000262565b5050506200009481670de0b6b3a764000084620000889190620005b2565b620000df60201b60201c565b80600560006101000a81548173ffffffffffffffffffffffffffffffffffffffff021916908373ffffffffffffffffffffffffffffffffffffffff1602179055505050505062000802565b600073ffffffffffffffffffffffffffffffffffffffff168273ffffffffffffffffffffffffffffffffffffffff16141562000152576040517f08c379a00000000000000000000000000000000000000000000000000000000081526004016200014990620004a6565b60405180910390fd5b62000166600083836200025860201b60201c565b80600260008282546200017a919062000555565b92505081905550806000808473ffffffffffffffffffffffffffffffffffffffff1673ffffffffffffffffffffffffffffffffffffffff1681526020019081526020016000206000828254620001d1919062000555565b925050819055508173ffffffffffffffffffffffffffffffffffffffff16600073ffffffffffffffffffffffffffffffffffffffff167fddf252ad1be2c89b69c2b068fc378daa952ba7f163c4a11628f55a4df523b3ef83604051620002389190620004c8565b60405180910390a362000254600083836200025d60201b60201c565b5050565b505050565b505050565b828054620002709062000687565b90600052602060002090601f016020900481019282620002945760008555620002e0565b82601f10620002af57805160ff1916838001178555620002e0565b82800160010185558215620002e0579182015b82811115620002df578251825591602001919060010190620002c2565b5b509050620002ef9190620002f3565b5090565b5b808211156200030e576000816000905550600101620002f4565b5090565b60006200032962000323846200050e565b620004e5565b90508281526020810184848401111562000348576200034762000785565b5b6200035584828562000651565b509392505050565b6000815190506200036e81620007ce565b92915050565b600082601f8301126200038c576200038b62000780565b5b81516200039e84826020860162000312565b91505092915050565b600081519050620003b881620007e8565b92915050565b60008060008060808587031215620003db57620003da6200078f565b5b600085015167ffffffffffffffff811115620003fc57620003fb6200078a565b5b6200040a8782880162000374565b945050602085015167ffffffffffffffff8111156200042e576200042d6200078a565b5b6200043c8782880162000374565b93505060406200044f87828801620003a7565b925050606062000462878288016200035d565b91505092959194509250565b60006200047d601f8362000544565b91506200048a82620007a5565b602082019050919050565b620004a08162000647565b82525050565b60006020820190508181036000830152620004c1816200046e565b9050919050565b6000602082019050620004df600083018462000495565b92915050565b6000620004f162000504565b9050620004ff8282620006bd565b919050565b6000604051905090565b600067ffffffffffffffff8211156200052c576200052b62000751565b5b620005378262000794565b9050602081019050919050565b600082825260208201905092915050565b6000620005628262000647565b91506200056f8362000647565b9250827fffffffffffffffffffffffffffffffffffffffffffffffffffffffffffffffff03821115620005a757620005a6620006f3565b5b828201905092915050565b6000620005bf8262000647565b9150620005cc8362000647565b9250817fffffffffffffffffffffffffffffffffffffffffffffffffffffffffffffffff0483118215151615620006085762000607620006f3565b5b828202905092915050565b6000620006208262000627565b9050919050565b600073ffffffffffffffffffffffffffffffffffffffff82169050919050565b6000819050919050565b60005b838110156200067157808201518184015260208101905062000654565b8381111562000681576000848401525b50505050565b60006002820490506001821680620006a057607f821691505b60208210811415620006b757620006b662000722565b5b50919050565b620006c88262000794565b810181811067ffffffffffffffff82111715620006ea57620006e962000751565b5b80604052505050565b7f4e487b7100000000000000000000000000000000000000000000000000000000600052601160045260246000fd5b7f4e487b7100000000000000000000000000000000000000000000000000000000600052602260045260246000fd5b7f4e487b7100000000000000000000000000000000000000000000000000000000600052604160045260246000fd5b600080fd5b600080fd5b600080fd5b600080fd5b6000601f19601f8301169050919050565b7f45524332303a206d696e7420746f20746865207a65726f206164647265737300600082015250565b620007d98162000613565b8114620007e557600080fd5b50565b620007f38162000647565b8114620007ff57600080fd5b50565b61175780620008126000396000f3fe608060405234801561001057600080fd5b50600436106100cf5760003560e01c8063410085df1161008c578063a457c2d711610066578063a457c2d71461023c578063a9059cbb1461026c578063dd62ed3e1461029c578063f851a440146102cc576100cf565b8063410085df146101be57806370a08231146101ee57806395d89b411461021e576100cf565b806306fdde03146100d4578063095ea7b3146100f257806318160ddd1461012257806323b872dd14610140578063313ce56714610170578063395093511461018e575b600080fd5b6100dc6102ea565b6040516100e99190611106565b60405180910390f35b61010c60048036038101906101079190610ee0565b61037c565b60405161011991906110eb565b60405180910390f35b61012a61039f565b6040516101379190611248565b60405180910390f35b61015a60048036038101906101559190610e8d565b6103a9565b60405161016791906110eb565b60405180910390f35b6101786103d8565b6040516101859190611263565b60405180910390f35b6101a860048036038101906101a39190610ee0565b6103e1565b6040516101b591906110eb565b60405180910390f35b6101d860048036038101906101d39190610ee0565b61048b565b6040516101e591906110eb565b60405180910390f35b61020860048036038101906102039190610e20565b6104a1565b6040516102159190611248565b60405180910390f35b6102266104e9565b6040516102339190611106565b60405180910390f35b61025660048036038101906102519190610ee0565b61057b565b60405161026391906110eb565b60405180910390f35b61028660048036038101906102819190610ee0565b610665565b60405161029391906110eb565b60405180910390f35b6102b660048036038101906102b19190610e4d565b610688565b6040516102c39190611248565b60405180910390f35b6102d461070f565b6040516102e191906110d0565b60405180910390f35b6060600380546102f9906113ac565b80601f0160208091040260200160405190810160405280929190818152602001828054610325906113ac565b80156103725780601f1061034757610100808354040283529160200191610372565b820191906000526020600020905b81548152906001019060200180831161035557829003601f168201915b5050505050905090565b600080610387610735565b905061039481858561073d565b600191505092915050565b6000600254905090565b6000806103b4610735565b90506103c1858285610908565b6103cc858585610994565b60019150509392505050565b60006012905090565b6000806103ec610735565b9050610480818585600160008673ffffffffffffffffffffffffffffffffffffffff1673ffffffffffffffffffffffffffffffffffffffff16815260200190815260200160002060008973ffffffffffffffffffffffffffffffffffffffff1673ffffffffffffffffffffffffffffffffffffffff1681526020019081526020016000205461047b919061129a565b61073d565b600191505092915050565b60006104978383610c15565b6001905092915050565b60008060008373ffffffffffffffffffffffffffffffffffffffff1673ffffffffffffffffffffffffffffffffffffffff168152602001908152602001600020549050919050565b6060600480546104f8906113ac565b80601f0160208091040260200160405190810160405280929190818152602001828054610524906113ac565b80156105715780601f1061054657610100808354040283529160200191610571565b820191906000526020600020905b81548152906001019060200180831161055457829003601f168201915b5050505050905090565b600080610586610735565b90506000600160008373ffffffffffffffffffffffffffffffffffffffff1673ffffffffffffffffffffffffffffffffffffffff16815260200190815260200160002060008673ffffffffffffffffffffffffffffffffffffffff1673ffffffffffffffffffffffffffffffffffffffff1681526020019081526020016000205490508381101561064c576040517f08c379a000000000000000000000000000000000000000000000000000000000815260040161064390611228565b60405180910390fd5b610659828686840361073d565b60019250505092915050565b600080610670610735565b905061067d818585610994565b600191505092915050565b6000600160008473ffffffffffffffffffffffffffffffffffffffff1673ffffffffffffffffffffffffffffffffffffffff16815260200190815260200160002060008373ffffffffffffffffffffffffffffffffffffffff1673ffffffffffffffffffffffffffffffffffffffff16815260200190815260200160002054905092915050565b600560009054906101000a900473ffffffffffffffffffffffffffffffffffffffff1681565b600033905090565b600073ffffffffffffffffffffffffffffffffffffffff168373ffffffffffffffffffffffffffffffffffffffff1614156107ad576040517f08c379a00000000000000000000000000000000000000000000000000000000081526004016107a490611208565b60405180910390fd5b600073ffffffffffffffffffffffffffffffffffffffff168273ffffffffffffffffffffffffffffffffffffffff16141561081d576040517f08c379a000000000000000000000000000000000000000000000000000000000815260040161081490611168565b60405180910390fd5b80600160008573ffffffffffffffffffffffffffffffffffffffff1673ffffffffffffffffffffffffffffffffffffffff16815260200190815260200160002060008473ffffffffffffffffffffffffffffffffffffffff1673ffffffffffffffffffffffffffffffffffffffff168152602001908152602001600020819055508173ffffffffffffffffffffffffffffffffffffffff168373ffffffffffffffffffffffffffffffffffffffff167f8c5be1e5ebec7d5bd14f71427d1e84f3dd0314c0f7b2291e5b200ac8c7c3b925836040516108fb9190611248565b60405180910390a3505050565b60006109148484610688565b90507fffffffffffffffffffffffffffffffffffffffffffffffffffffffffffffffff811461098e5781811015610980576040517f08c379a000000000000000000000000000000000000000000000000000000000815260040161097790611188565b60405180910390fd5b61098d848484840361073d565b5b50505050565b600073ffffffffffffffffffffffffffffffffffffffff168373ffffffffffffffffffffffffffffffffffffffff161415610a04576040517f08c379a00000000000000000000000000000000000000000000000000000000081526004016109fb906111e8565b60405180910390fd5b600073ffffffffffffffffffffffffffffffffffffffff168273ffffffffffffffffffffffffffffffffffffffff161415610a74576040517f08c379a0000000000000000000000000000000000000000000000000000000008152600401610a6b90611128565b60405180910390fd5b610a7f838383610dec565b60008060008573ffffffffffffffffffffffffffffffffffffffff1673ffffffffffffffffffffffffffffffffffffffff16815260200190815260200160002054905081811015610b05576040517f08c379a0000000000000000000000000000000000000000000000000000000008152600401610afc906111a8565b60405180910390fd5b8181036000808673ffffffffffffffffffffffffffffffffffffffff1673ffffffffffffffffffffffffffffffffffffffff16815260200190815260200160002081905550816000808573ffffffffffffffffffffffffffffffffffffffff1673ffffffffffffffffffffffffffffffffffffffff1681526020019081526020016000206000828254610b98919061129a565b925050819055508273ffffffffffffffffffffffffffffffffffffffff168473ffffffffffffffffffffffffffffffffffffffff167fddf252ad1be2c89b69c2b068fc378daa952ba7f163c4a11628f55a4df523b3ef84604051610bfc9190611248565b60405180910390a3610c0f848484610df1565b50505050565b600073ffffffffffffffffffffffffffffffffffffffff168273ffffffffffffffffffffffffffffffffffffffff161415610c85576040517f08c379a0000000000000000000000000000000000000000000000000000000008152600401610c7c906111c8565b60405180910390fd5b610c9182600083610dec565b60008060008473ffffffffffffffffffffffffffffffffffffffff1673ffffffffffffffffffffffffffffffffffffffff16815260200190815260200160002054905081811015610d17576040517f08c379a0000000000000000000000000000000000000000000000000000000008152600401610d0e90611148565b60405180910390fd5b8181036000808573ffffffffffffffffffffffffffffffffffffffff1673ffffffffffffffffffffffffffffffffffffffff168152602001908152602001600020819055508160026000828254610d6e91906112f0565b92505081905550600073ffffffffffffffffffffffffffffffffffffffff168373ffffffffffffffffffffffffffffffffffffffff167fddf252ad1be2c89b69c2b068fc378daa952ba7f163c4a11628f55a4df523b3ef84604051610dd39190611248565b60405180910390a3610de783600084610df1565b505050565b505050565b505050565b600081359050610e05816116f3565b92915050565b600081359050610e1a8161170a565b92915050565b600060208284031215610e3657610e3561143c565b5b6000610e4484828501610df6565b91505092915050565b60008060408385031215610e6457610e6361143c565b5b6000610e7285828601610df6565b9250506020610e8385828601610df6565b9150509250929050565b600080600060608486031215610ea657610ea561143c565b5b6000610eb486828701610df6565b9350506020610ec586828701610df6565b9250506040610ed686828701610e0b565b9150509250925092565b60008060408385031215610ef757610ef661143c565b5b6000610f0585828601610df6565b9250506020610f1685828601610e0b565b9150509250929050565b610f2981611324565b82525050565b610f3881611336565b82525050565b6000610f498261127e565b610f538185611289565b9350610f63818560208601611379565b610f6c81611441565b840191505092915050565b6000610f84602383611289565b9150610f8f82611452565b604082019050919050565b6000610fa7602283611289565b9150610fb2826114a1565b604082019050919050565b6000610fca602283611289565b9150610fd5826114f0565b604082019050919050565b6000610fed601d83611289565b9150610ff88261153f565b602082019050919050565b6000611010602683611289565b915061101b82611568565b604082019050919050565b6000611033602183611289565b915061103e826115b7565b604082019050919050565b6000611056602583611289565b915061106182611606565b604082019050919050565b6000611079602483611289565b915061108482611655565b604082019050919050565b600061109c602583611289565b91506110a7826116a4565b604082019050919050565b6110bb81611362565b82525050565b6110ca8161136c565b82525050565b60006020820190506110e56000830184610f20565b92915050565b60006020820190506111006000830184610f2f565b92915050565b600060208201905081810360008301526111208184610f3e565b905092915050565b6000602082019050818103600083015261114181610f77565b9050919050565b6000602082019050818103600083015261116181610f9a565b9050919050565b6000602082019050818103600083015261118181610fbd565b9050919050565b600060208201905081810360008301526111a181610fe0565b9050919050565b600060208201905081810360008301526111c181611003565b9050919050565b600060208201905081810360008301526111e181611026565b9050919050565b6000602082019050818103600083015261120181611049565b9050919050565b600060208201905081810360008301526112218161106c565b9050919050565b600060208201905081810360008301526112418161108f565b9050919050565b600060208201905061125d60008301846110b2565b92915050565b600060208201905061127860008301846110c1565b92915050565b600081519050919050565b600082825260208201905092915050565b60006112a582611362565b91506112b083611362565b9250827fffffffffffffffffffffffffffffffffffffffffffffffffffffffffffffffff038211156112e5576112e46113de565b5b828201905092915050565b60006112fb82611362565b915061130683611362565b925082821015611319576113186113de565b5b828203905092915050565b600061132f82611342565b9050919050565b60008115159050919050565b600073ffffffffffffffffffffffffffffffffffffffff82169050919050565b6000819050919050565b600060ff82169050919050565b60005b8381101561139757808201518184015260208101905061137c565b838111156113a6576000848401525b50505050565b600060028204905060018216806113c457607f821691505b602082108114156113d8576113d761140d565b5b50919050565b7f4e487b7100000000000000000000000000000000000000000000000000000000600052601160045260246000fd5b7f4e487b7100000000000000000000000000000000000000000000000000000000600052602260045260246000fd5b600080fd5b6000601f19601f8301169050919050565b7f45524332303a207472616e7366657220746f20746865207a65726f206164647260008201527f6573730000000000000000000000000000000000000000000000000000000000602082015250565b7f45524332303a206275726e20616d6f756e7420657863656564732062616c616e60008201527f6365000000000000000000000000000000000000000000000000000000000000602082015250565b7f45524332303a20617070726f766520746f20746865207a65726f20616464726560008201527f7373000000000000000000000000000000000000000000000000000000000000602082015250565b7f45524332303a20696e73756666696369656e7420616c6c6f77616e6365000000600082015250565b7f45524332303a207472616e7366657220616d6f756e742065786365656473206260008201527f616c616e63650000000000000000000000000000000000000000000000000000602082015250565b7f45524332303a206275726e2066726f6d20746865207a65726f2061646472657360008201527f7300000000000000000000000000000000000000000000000000000000000000602082015250565b7f45524332303a207472616e736665722066726f6d20746865207a65726f20616460008201527f6472657373000000000000000000000000000000000000000000000000000000602082015250565b7f45524332303a20617070726f76652066726f6d20746865207a65726f2061646460008201527f7265737300000000000000000000000000000000000000000000000000000000602082015250565b7f45524332303a2064656372656173656420616c6c6f77616e63652062656c6f7760008201527f207a65726f000000000000000000000000000000000000000000000000000000602082015250565b6116fc81611324565b811461170757600080fd5b50565b61171381611362565b811461171e57600080fd5b5056fea2646970667358221220371d0620df1ad7d4ebd22196b304e6ebb6c1cc8106ccff450d8cab97df5b913e64736f6c63430008060033",
  "immutableReferences": {},
  "source": "// SPDX-License-Identifier: MIT\r\npragma solidity ^0.8.6;\r\n\r\nimport \"@openzeppelin/contracts/token/ERC20/ERC20.sol\";\r\n\r\ncontract Token is ERC20 {\r\n\r\n    address public admin;\r\n\r\n    constructor(string memory name, string memory symbol, uint256 initialSupply, address _owner) ERC20(name, symbol) {\r\n        _mint(_owner, initialSupply * 10**18);\r\n        admin = _owner;\r\n    }\r\n\r\n    function refund(address account, uint256 amount) public returns (bool) {\r\n        _burn(account,amount);\r\n        return true;\r\n    }\r\n}\r\n\r\n\r\n",
  "sourcePath": "C:\\Users\\alfie\\OneDrive\\Desktop\\FTGP\\BackEnd\\token_sale\\contracts\\Token.sol",
  "compiler": {
    "name": "solc",
    "version": "0.8.6+commit.11564f7e.Emscripten.clang"
  },
  "schemaVersion": "3.4.6",
  "updatedAt": "2022-04-18T19:07:31.554Z",
  "devdoc": {
    "kind": "dev",
    "methods": {
      "allowance(address,address)": {
        "details": "See {IERC20-allowance}."
      },
      "approve(address,uint256)": {
        "details": "See {IERC20-approve}. NOTE: If `amount` is the maximum `uint256`, the allowance is not updated on `transferFrom`. This is semantically equivalent to an infinite approval. Requirements: - `spender` cannot be the zero address."
      },
      "balanceOf(address)": {
        "details": "See {IERC20-balanceOf}."
      },
      "decimals()": {
        "details": "Returns the number of decimals used to get its user representation. For example, if `decimals` equals `2`, a balance of `505` tokens should be displayed to a user as `5.05` (`505 / 10 ** 2`). Tokens usually opt for a value of 18, imitating the relationship between Ether and Wei. This is the value {ERC20} uses, unless this function is overridden; NOTE: This information is only used for _display_ purposes: it in no way affects any of the arithmetic of the contract, including {IERC20-balanceOf} and {IERC20-transfer}."
      },
      "decreaseAllowance(address,uint256)": {
        "details": "Atomically decreases the allowance granted to `spender` by the caller. This is an alternative to {approve} that can be used as a mitigation for problems described in {IERC20-approve}. Emits an {Approval} event indicating the updated allowance. Requirements: - `spender` cannot be the zero address. - `spender` must have allowance for the caller of at least `subtractedValue`."
      },
      "increaseAllowance(address,uint256)": {
        "details": "Atomically increases the allowance granted to `spender` by the caller. This is an alternative to {approve} that can be used as a mitigation for problems described in {IERC20-approve}. Emits an {Approval} event indicating the updated allowance. Requirements: - `spender` cannot be the zero address."
      },
      "name()": {
        "details": "Returns the name of the token."
      },
      "symbol()": {
        "details": "Returns the symbol of the token, usually a shorter version of the name."
      },
      "totalSupply()": {
        "details": "See {IERC20-totalSupply}."
      },
      "transfer(address,uint256)": {
        "details": "See {IERC20-transfer}. Requirements: - `to` cannot be the zero address. - the caller must have a balance of at least `amount`."
      },
      "transferFrom(address,address,uint256)": {
        "details": "See {IERC20-transferFrom}. Emits an {Approval} event indicating the updated allowance. This is not required by the EIP. See the note at the beginning of {ERC20}. NOTE: Does not update the allowance if the current allowance is the maximum `uint256`. Requirements: - `from` and `to` cannot be the zero address. - `from` must have a balance of at least `amount`. - the caller must have allowance for ``from``'s tokens of at least `amount`."
      }
    },
    "version": 1
  },
  "userdoc": {
    "kind": "user",
    "methods": {},
    "version": 1
  }
}