{
  "contractName": "tokenFactory",
  "abi": [
    {
      "inputs": [],
      "stateMutability": "nonpayable",
      "type": "constructor"
    },
    {
      "anonymous": false,
      "inputs": [
        {
          "indexed": false,
          "internalType": "address",
          "name": "ICOAddress",
          "type": "address"
        }
      ],
      "name": "ICOCreated",
      "type": "event"
    },
    {
      "anonymous": false,
      "inputs": [
        {
          "indexed": false,
          "internalType": "address",
          "name": "tokenAdd",
          "type": "address"
        }
      ],
      "name": "TokenCreated",
      "type": "event"
    },
    {
      "inputs": [
        {
          "internalType": "string",
          "name": "name",
          "type": "string"
        },
        {
          "internalType": "string",
          "name": "symbol",
          "type": "string"
        },
        {
          "internalType": "uint256",
          "name": "supply",
          "type": "uint256"
        }
      ],
      "name": "genToken",
      "outputs": [
        {
          "internalType": "address",
          "name": "tokenAdd",
          "type": "address"
        }
      ],
      "stateMutability": "nonpayable",
      "type": "function"
    },
    {
      "inputs": [
        {
          "internalType": "contract Token",
          "name": "_tokenContract",
          "type": "address"
        },
        {
          "internalType": "uint256",
          "name": "_tokenPrice",
          "type": "uint256"
        },
        {
          "internalType": "uint256",
          "name": "_min",
          "type": "uint256"
        },
        {
          "internalType": "address",
          "name": "owner",
          "type": "address"
        }
      ],
      "name": "genICO",
      "outputs": [
        {
          "internalType": "address",
          "name": "ICOAddress",
          "type": "address"
        }
      ],
      "stateMutability": "nonpayable",
      "type": "function"
    }
  ],
  "bytecode": "0x608060405234801561001057600080fd5b50336000806101000a81548173ffffffffffffffffffffffffffffffffffffffff021916908373ffffffffffffffffffffffffffffffffffffffff160217905550613888806100606000396000f3fe60806040523480156200001157600080fd5b50600436106200003a5760003560e01c806306d5295c146200003f578063cdf99c381462000075575b600080fd5b6200005d6004803603810190620000579190620003aa565b620000ab565b6040516200006c9190620004b4565b60405180910390f35b6200009360048036038101906200008d919062000338565b62000194565b604051620000a29190620004b4565b60405180910390f35b60008060009054906101000a900473ffffffffffffffffffffffffffffffffffffffff1673ffffffffffffffffffffffffffffffffffffffff163373ffffffffffffffffffffffffffffffffffffffff16146200010757600080fd5b60008686868686336040516200011d9062000278565b6200012e969594939291906200051e565b604051809103906000f0801580156200014b573d6000803e3d6000fd5b5090507f2e2b3f61b70d2d131b2a807371103cc98d51adcaa5e9a8f9c32658ad8426e74e816040516200017f9190620004b4565b60405180910390a18091505095945050505050565b60008060009054906101000a900473ffffffffffffffffffffffffffffffffffffffff1673ffffffffffffffffffffffffffffffffffffffff163373ffffffffffffffffffffffffffffffffffffffff1614620001f057600080fd5b600085858585604051620002049062000286565b620002139493929190620004d1565b604051809103906000f08015801562000230573d6000803e3d6000fd5b5090507fa0b22141ffe2ec47c74f5ad0c51050cc00b1aa90e1a9e22e012de99b5ee0953f81604051620002649190620004b4565b60405180910390a180915050949350505050565b611f69806200069083390190565b61125a80620025f983390190565b600081359050620002a58162000641565b92915050565b600081359050620002bc816200065b565b92915050565b60008083601f840112620002db57620002da6200061c565b5b8235905067ffffffffffffffff811115620002fb57620002fa62000617565b5b6020830191508360018202830111156200031a576200031962000621565b5b9250929050565b600081359050620003328162000675565b92915050565b600080600080608085870312156200035557620003546200062b565b5b60006200036587828801620002ab565b9450506020620003788782880162000321565b93505060406200038b8782880162000321565b92505060606200039e8782880162000294565b91505092959194509250565b600080600080600060608688031215620003c957620003c86200062b565b5b600086013567ffffffffffffffff811115620003ea57620003e962000626565b5b620003f888828901620002c2565b9550955050602086013567ffffffffffffffff8111156200041e576200041d62000626565b5b6200042c88828901620002c2565b93509350506040620004418882890162000321565b9150509295509295909350565b62000459816200058e565b82525050565b6200046a81620005e0565b82525050565b60006200047e83856200057d565b93506200048d83858462000608565b620004988362000630565b840190509392505050565b620004ae81620005d6565b82525050565b6000602082019050620004cb60008301846200044e565b92915050565b6000608082019050620004e860008301876200045f565b620004f76020830186620004a3565b620005066040830185620004a3565b6200051560608301846200044e565b95945050505050565b600060808201905081810360008301526200053b81888a62000470565b905081810360208301526200055281868862000470565b9050620005636040830185620004a3565b6200057260608301846200044e565b979650505050505050565b600082825260208201905092915050565b60006200059b82620005b6565b9050919050565b6000620005af826200058e565b9050919050565b600073ffffffffffffffffffffffffffffffffffffffff82169050919050565b6000819050919050565b6000620005ed82620005f4565b9050919050565b60006200060182620005b6565b9050919050565b82818337600083830152505050565b600080fd5b600080fd5b600080fd5b600080fd5b600080fd5b6000601f19601f8301169050919050565b6200064c816200058e565b81146200065857600080fd5b50565b6200066681620005a2565b81146200067257600080fd5b50565b6200068081620005d6565b81146200068c57600080fd5b5056fe60806040523480156200001157600080fd5b5060405162001f6938038062001f698339818101604052810190620000379190620003be565b838381600390805190602001906200005192919062000262565b5080600490805190602001906200006a92919062000262565b5050506200009481670de0b6b3a764000084620000889190620005b2565b620000df60201b60201c565b80600560006101000a81548173ffffffffffffffffffffffffffffffffffffffff021916908373ffffffffffffffffffffffffffffffffffffffff1602179055505050505062000802565b600073ffffffffffffffffffffffffffffffffffffffff168273ffffffffffffffffffffffffffffffffffffffff16141562000152576040517f08c379a00000000000000000000000000000000000000000000000000000000081526004016200014990620004a6565b60405180910390fd5b62000166600083836200025860201b60201c565b80600260008282546200017a919062000555565b92505081905550806000808473ffffffffffffffffffffffffffffffffffffffff1673ffffffffffffffffffffffffffffffffffffffff1681526020019081526020016000206000828254620001d1919062000555565b925050819055508173ffffffffffffffffffffffffffffffffffffffff16600073ffffffffffffffffffffffffffffffffffffffff167fddf252ad1be2c89b69c2b068fc378daa952ba7f163c4a11628f55a4df523b3ef83604051620002389190620004c8565b60405180910390a362000254600083836200025d60201b60201c565b5050565b505050565b505050565b828054620002709062000687565b90600052602060002090601f016020900481019282620002945760008555620002e0565b82601f10620002af57805160ff1916838001178555620002e0565b82800160010185558215620002e0579182015b82811115620002df578251825591602001919060010190620002c2565b5b509050620002ef9190620002f3565b5090565b5b808211156200030e576000816000905550600101620002f4565b5090565b60006200032962000323846200050e565b620004e5565b90508281526020810184848401111562000348576200034762000785565b5b6200035584828562000651565b509392505050565b6000815190506200036e81620007ce565b92915050565b600082601f8301126200038c576200038b62000780565b5b81516200039e84826020860162000312565b91505092915050565b600081519050620003b881620007e8565b92915050565b60008060008060808587031215620003db57620003da6200078f565b5b600085015167ffffffffffffffff811115620003fc57620003fb6200078a565b5b6200040a8782880162000374565b945050602085015167ffffffffffffffff8111156200042e576200042d6200078a565b5b6200043c8782880162000374565b93505060406200044f87828801620003a7565b925050606062000462878288016200035d565b91505092959194509250565b60006200047d601f8362000544565b91506200048a82620007a5565b602082019050919050565b620004a08162000647565b82525050565b60006020820190508181036000830152620004c1816200046e565b9050919050565b6000602082019050620004df600083018462000495565b92915050565b6000620004f162000504565b9050620004ff8282620006bd565b919050565b6000604051905090565b600067ffffffffffffffff8211156200052c576200052b62000751565b5b620005378262000794565b9050602081019050919050565b600082825260208201905092915050565b6000620005628262000647565b91506200056f8362000647565b9250827fffffffffffffffffffffffffffffffffffffffffffffffffffffffffffffffff03821115620005a757620005a6620006f3565b5b828201905092915050565b6000620005bf8262000647565b9150620005cc8362000647565b9250817fffffffffffffffffffffffffffffffffffffffffffffffffffffffffffffffff0483118215151615620006085762000607620006f3565b5b828202905092915050565b6000620006208262000627565b9050919050565b600073ffffffffffffffffffffffffffffffffffffffff82169050919050565b6000819050919050565b60005b838110156200067157808201518184015260208101905062000654565b8381111562000681576000848401525b50505050565b60006002820490506001821680620006a057607f821691505b60208210811415620006b757620006b662000722565b5b50919050565b620006c88262000794565b810181811067ffffffffffffffff82111715620006ea57620006e962000751565b5b80604052505050565b7f4e487b7100000000000000000000000000000000000000000000000000000000600052601160045260246000fd5b7f4e487b7100000000000000000000000000000000000000000000000000000000600052602260045260246000fd5b7f4e487b7100000000000000000000000000000000000000000000000000000000600052604160045260246000fd5b600080fd5b600080fd5b600080fd5b600080fd5b6000601f19601f8301169050919050565b7f45524332303a206d696e7420746f20746865207a65726f206164647265737300600082015250565b620007d98162000613565b8114620007e557600080fd5b50565b620007f38162000647565b8114620007ff57600080fd5b50565b61175780620008126000396000f3fe608060405234801561001057600080fd5b50600436106100cf5760003560e01c8063410085df1161008c578063a457c2d711610066578063a457c2d71461023c578063a9059cbb1461026c578063dd62ed3e1461029c578063f851a440146102cc576100cf565b8063410085df146101be57806370a08231146101ee57806395d89b411461021e576100cf565b806306fdde03146100d4578063095ea7b3146100f257806318160ddd1461012257806323b872dd14610140578063313ce56714610170578063395093511461018e575b600080fd5b6100dc6102ea565b6040516100e99190611106565b60405180910390f35b61010c60048036038101906101079190610ee0565b61037c565b60405161011991906110eb565b60405180910390f35b61012a61039f565b6040516101379190611248565b60405180910390f35b61015a60048036038101906101559190610e8d565b6103a9565b60405161016791906110eb565b60405180910390f35b6101786103d8565b6040516101859190611263565b60405180910390f35b6101a860048036038101906101a39190610ee0565b6103e1565b6040516101b591906110eb565b60405180910390f35b6101d860048036038101906101d39190610ee0565b61048b565b6040516101e591906110eb565b60405180910390f35b61020860048036038101906102039190610e20565b6104a1565b6040516102159190611248565b60405180910390f35b6102266104e9565b6040516102339190611106565b60405180910390f35b61025660048036038101906102519190610ee0565b61057b565b60405161026391906110eb565b60405180910390f35b61028660048036038101906102819190610ee0565b610665565b60405161029391906110eb565b60405180910390f35b6102b660048036038101906102b19190610e4d565b610688565b6040516102c39190611248565b60405180910390f35b6102d461070f565b6040516102e191906110d0565b60405180910390f35b6060600380546102f9906113ac565b80601f0160208091040260200160405190810160405280929190818152602001828054610325906113ac565b80156103725780601f1061034757610100808354040283529160200191610372565b820191906000526020600020905b81548152906001019060200180831161035557829003601f168201915b5050505050905090565b600080610387610735565b905061039481858561073d565b600191505092915050565b6000600254905090565b6000806103b4610735565b90506103c1858285610908565b6103cc858585610994565b60019150509392505050565b60006012905090565b6000806103ec610735565b9050610480818585600160008673ffffffffffffffffffffffffffffffffffffffff1673ffffffffffffffffffffffffffffffffffffffff16815260200190815260200160002060008973ffffffffffffffffffffffffffffffffffffffff1673ffffffffffffffffffffffffffffffffffffffff1681526020019081526020016000205461047b919061129a565b61073d565b600191505092915050565b60006104978383610c15565b6001905092915050565b60008060008373ffffffffffffffffffffffffffffffffffffffff1673ffffffffffffffffffffffffffffffffffffffff168152602001908152602001600020549050919050565b6060600480546104f8906113ac565b80601f0160208091040260200160405190810160405280929190818152602001828054610524906113ac565b80156105715780601f1061054657610100808354040283529160200191610571565b820191906000526020600020905b81548152906001019060200180831161055457829003601f168201915b5050505050905090565b600080610586610735565b90506000600160008373ffffffffffffffffffffffffffffffffffffffff1673ffffffffffffffffffffffffffffffffffffffff16815260200190815260200160002060008673ffffffffffffffffffffffffffffffffffffffff1673ffffffffffffffffffffffffffffffffffffffff1681526020019081526020016000205490508381101561064c576040517f08c379a000000000000000000000000000000000000000000000000000000000815260040161064390611228565b60405180910390fd5b610659828686840361073d565b60019250505092915050565b600080610670610735565b905061067d818585610994565b600191505092915050565b6000600160008473ffffffffffffffffffffffffffffffffffffffff1673ffffffffffffffffffffffffffffffffffffffff16815260200190815260200160002060008373ffffffffffffffffffffffffffffffffffffffff1673ffffffffffffffffffffffffffffffffffffffff16815260200190815260200160002054905092915050565b600560009054906101000a900473ffffffffffffffffffffffffffffffffffffffff1681565b600033905090565b600073ffffffffffffffffffffffffffffffffffffffff168373ffffffffffffffffffffffffffffffffffffffff1614156107ad576040517f08c379a00000000000000000000000000000000000000000000000000000000081526004016107a490611208565b60405180910390fd5b600073ffffffffffffffffffffffffffffffffffffffff168273ffffffffffffffffffffffffffffffffffffffff16141561081d576040517f08c379a000000000000000000000000000000000000000000000000000000000815260040161081490611168565b60405180910390fd5b80600160008573ffffffffffffffffffffffffffffffffffffffff1673ffffffffffffffffffffffffffffffffffffffff16815260200190815260200160002060008473ffffffffffffffffffffffffffffffffffffffff1673ffffffffffffffffffffffffffffffffffffffff168152602001908152602001600020819055508173ffffffffffffffffffffffffffffffffffffffff168373ffffffffffffffffffffffffffffffffffffffff167f8c5be1e5ebec7d5bd14f71427d1e84f3dd0314c0f7b2291e5b200ac8c7c3b925836040516108fb9190611248565b60405180910390a3505050565b60006109148484610688565b90507fffffffffffffffffffffffffffffffffffffffffffffffffffffffffffffffff811461098e5781811015610980576040517f08c379a000000000000000000000000000000000000000000000000000000000815260040161097790611188565b60405180910390fd5b61098d848484840361073d565b5b50505050565b600073ffffffffffffffffffffffffffffffffffffffff168373ffffffffffffffffffffffffffffffffffffffff161415610a04576040517f08c379a00000000000000000000000000000000000000000000000000000000081526004016109fb906111e8565b60405180910390fd5b600073ffffffffffffffffffffffffffffffffffffffff168273ffffffffffffffffffffffffffffffffffffffff161415610a74576040517f08c379a0000000000000000000000000000000000000000000000000000000008152600401610a6b90611128565b60405180910390fd5b610a7f838383610dec565b60008060008573ffffffffffffffffffffffffffffffffffffffff1673ffffffffffffffffffffffffffffffffffffffff16815260200190815260200160002054905081811015610b05576040517f08c379a0000000000000000000000000000000000000000000000000000000008152600401610afc906111a8565b60405180910390fd5b8181036000808673ffffffffffffffffffffffffffffffffffffffff1673ffffffffffffffffffffffffffffffffffffffff16815260200190815260200160002081905550816000808573ffffffffffffffffffffffffffffffffffffffff1673ffffffffffffffffffffffffffffffffffffffff1681526020019081526020016000206000828254610b98919061129a565b925050819055508273ffffffffffffffffffffffffffffffffffffffff168473ffffffffffffffffffffffffffffffffffffffff167fddf252ad1be2c89b69c2b068fc378daa952ba7f163c4a11628f55a4df523b3ef84604051610bfc9190611248565b60405180910390a3610c0f848484610df1565b50505050565b600073ffffffffffffffffffffffffffffffffffffffff168273ffffffffffffffffffffffffffffffffffffffff161415610c85576040517f08c379a0000000000000000000000000000000000000000000000000000000008152600401610c7c906111c8565b60405180910390fd5b610c9182600083610dec565b60008060008473ffffffffffffffffffffffffffffffffffffffff1673ffffffffffffffffffffffffffffffffffffffff16815260200190815260200160002054905081811015610d17576040517f08c379a0000000000000000000000000000000000000000000000000000000008152600401610d0e90611148565b60405180910390fd5b8181036000808573ffffffffffffffffffffffffffffffffffffffff1673ffffffffffffffffffffffffffffffffffffffff168152602001908152602001600020819055508160026000828254610d6e91906112f0565b92505081905550600073ffffffffffffffffffffffffffffffffffffffff168373ffffffffffffffffffffffffffffffffffffffff167fddf252ad1be2c89b69c2b068fc378daa952ba7f163c4a11628f55a4df523b3ef84604051610dd39190611248565b60405180910390a3610de783600084610df1565b505050565b505050565b505050565b600081359050610e05816116f3565b92915050565b600081359050610e1a8161170a565b92915050565b600060208284031215610e3657610e3561143c565b5b6000610e4484828501610df6565b91505092915050565b60008060408385031215610e6457610e6361143c565b5b6000610e7285828601610df6565b9250506020610e8385828601610df6565b9150509250929050565b600080600060608486031215610ea657610ea561143c565b5b6000610eb486828701610df6565b9350506020610ec586828701610df6565b9250506040610ed686828701610e0b565b9150509250925092565b60008060408385031215610ef757610ef661143c565b5b6000610f0585828601610df6565b9250506020610f1685828601610e0b565b9150509250929050565b610f2981611324565b82525050565b610f3881611336565b82525050565b6000610f498261127e565b610f538185611289565b9350610f63818560208601611379565b610f6c81611441565b840191505092915050565b6000610f84602383611289565b9150610f8f82611452565b604082019050919050565b6000610fa7602283611289565b9150610fb2826114a1565b604082019050919050565b6000610fca602283611289565b9150610fd5826114f0565b604082019050919050565b6000610fed601d83611289565b9150610ff88261153f565b602082019050919050565b6000611010602683611289565b915061101b82611568565b604082019050919050565b6000611033602183611289565b915061103e826115b7565b604082019050919050565b6000611056602583611289565b915061106182611606565b604082019050919050565b6000611079602483611289565b915061108482611655565b604082019050919050565b600061109c602583611289565b91506110a7826116a4565b604082019050919050565b6110bb81611362565b82525050565b6110ca8161136c565b82525050565b60006020820190506110e56000830184610f20565b92915050565b60006020820190506111006000830184610f2f565b92915050565b600060208201905081810360008301526111208184610f3e565b905092915050565b6000602082019050818103600083015261114181610f77565b9050919050565b6000602082019050818103600083015261116181610f9a565b9050919050565b6000602082019050818103600083015261118181610fbd565b9050919050565b600060208201905081810360008301526111a181610fe0565b9050919050565b600060208201905081810360008301526111c181611003565b9050919050565b600060208201905081810360008301526111e181611026565b9050919050565b6000602082019050818103600083015261120181611049565b9050919050565b600060208201905081810360008301526112218161106c565b9050919050565b600060208201905081810360008301526112418161108f565b9050919050565b600060208201905061125d60008301846110b2565b92915050565b600060208201905061127860008301846110c1565b92915050565b600081519050919050565b600082825260208201905092915050565b60006112a582611362565b91506112b083611362565b9250827fffffffffffffffffffffffffffffffffffffffffffffffffffffffffffffffff038211156112e5576112e46113de565b5b828201905092915050565b60006112fb82611362565b915061130683611362565b925082821015611319576113186113de565b5b828203905092915050565b600061132f82611342565b9050919050565b60008115159050919050565b600073ffffffffffffffffffffffffffffffffffffffff82169050919050565b6000819050919050565b600060ff82169050919050565b60005b8381101561139757808201518184015260208101905061137c565b838111156113a6576000848401525b50505050565b600060028204905060018216806113c457607f821691505b602082108114156113d8576113d761140d565b5b50919050565b7f4e487b7100000000000000000000000000000000000000000000000000000000600052601160045260246000fd5b7f4e487b7100000000000000000000000000000000000000000000000000000000600052602260045260246000fd5b600080fd5b6000601f19601f8301169050919050565b7f45524332303a207472616e7366657220746f20746865207a65726f206164647260008201527f6573730000000000000000000000000000000000000000000000000000000000602082015250565b7f45524332303a206275726e20616d6f756e7420657863656564732062616c616e60008201527f6365000000000000000000000000000000000000000000000000000000000000602082015250565b7f45524332303a20617070726f766520746f20746865207a65726f20616464726560008201527f7373000000000000000000000000000000000000000000000000000000000000602082015250565b7f45524332303a20696e73756666696369656e7420616c6c6f77616e6365000000600082015250565b7f45524332303a207472616e7366657220616d6f756e742065786365656473206260008201527f616c616e63650000000000000000000000000000000000000000000000000000602082015250565b7f45524332303a206275726e2066726f6d20746865207a65726f2061646472657360008201527f7300000000000000000000000000000000000000000000000000000000000000602082015250565b7f45524332303a207472616e736665722066726f6d20746865207a65726f20616460008201527f6472657373000000000000000000000000000000000000000000000000000000602082015250565b7f45524332303a20617070726f76652066726f6d20746865207a65726f2061646460008201527f7265737300000000000000000000000000000000000000000000000000000000602082015250565b7f45524332303a2064656372656173656420616c6c6f77616e63652062656c6f7760008201527f207a65726f000000000000000000000000000000000000000000000000000000602082015250565b6116fc81611324565b811461170757600080fd5b50565b61171381611362565b811461171e57600080fd5b5056fea2646970667358221220371d0620df1ad7d4ebd22196b304e6ebb6c1cc8106ccff450d8cab97df5b913e64736f6c6343000806003360806040523480156200001157600080fd5b506040516200125a3803806200125a83398181016040528101906200003791906200014b565b806000806101000a81548173ffffffffffffffffffffffffffffffffffffffff021916908373ffffffffffffffffffffffffffffffffffffffff16021790555083600160006101000a81548173ffffffffffffffffffffffffffffffffffffffff021916908373ffffffffffffffffffffffffffffffffffffffff16021790555082600281905550816004819055506000600560006101000a81548160ff0219169083151502179055506000600560016101000a81548160ff0219169083151502179055505050505062000262565b600081519050620001178162000214565b92915050565b6000815190506200012e816200022e565b92915050565b600081519050620001458162000248565b92915050565b600080600080608085870312156200016857620001676200020f565b5b600062000178878288016200011d565b94505060206200018b8782880162000134565b93505060406200019e8782880162000134565b9250506060620001b18782880162000106565b91505092959194509250565b6000620001ca82620001e5565b9050919050565b6000620001de82620001bd565b9050919050565b600073ffffffffffffffffffffffffffffffffffffffff82169050919050565b6000819050919050565b600080fd5b6200021f81620001bd565b81146200022b57600080fd5b50565b6200023981620001d1565b81146200024557600080fd5b50565b620002538162000205565b81146200025f57600080fd5b50565b610fe880620002726000396000f3fe6080604052600436106100865760003560e01c80639b8906ae116100595780639b8906ae146100f8578063a035b1fe14610123578063a226b8ae1461014e578063c85501bb14610179578063fc0c546a146101a457610086565b8063278ecde11461008b5780633610724e146100a7578063380d831b146100c3578063518ab2a8146100cd575b600080fd5b6100a560048036038101906100a09190610a37565b6101cf565b005b6100c160048036038101906100bc9190610a37565b61036e565b005b6100cb610569565b005b3480156100d957600080fd5b506100e26108f4565b6040516100ef9190610c48565b60405180910390f35b34801561010457600080fd5b5061010d6108fa565b60405161011a9190610bb2565b60405180910390f35b34801561012f57600080fd5b5061013861090d565b6040516101459190610c48565b60405180910390f35b34801561015a57600080fd5b50610163610913565b6040516101709190610bb2565b60405180910390f35b34801561018557600080fd5b5061018e610926565b60405161019b9190610c48565b60405180910390f35b3480156101b057600080fd5b506101b961092c565b6040516101c69190610bcd565b60405180910390f35b600033905060011515600560009054906101000a900460ff1615151461022a576040517f08c379a000000000000000000000000000000000000000000000000000000000815260040161022190610c08565b60405180910390fd5b600160009054906101000a900473ffffffffffffffffffffffffffffffffffffffff1673ffffffffffffffffffffffffffffffffffffffff1663410085df82846040518363ffffffff1660e01b8152600401610287929190610b60565b602060405180830381600087803b1580156102a157600080fd5b505af11580156102b5573d6000803e3d6000fd5b505050506040513d601f19601f820116820180604052508101906102d99190610a0a565b610318576040517f08c379a000000000000000000000000000000000000000000000000000000000815260040161030f90610be8565b60405180910390fd5b8073ffffffffffffffffffffffffffffffffffffffff166108fc61033e84600254610952565b9081150290604051600060405180830381858888f19350505050158015610369573d6000803e3d6000fd5b505050565b60001515600560019054906101000a900460ff1615151461038e57600080fd5b61039a81600254610952565b34146103a557600080fd5b80600160009054906101000a900473ffffffffffffffffffffffffffffffffffffffff1673ffffffffffffffffffffffffffffffffffffffff166370a08231306040518263ffffffff1660e01b81526004016104019190610b45565b60206040518083038186803b15801561041957600080fd5b505afa15801561042d573d6000803e3d6000fd5b505050506040513d601f19601f820116820180604052508101906104519190610a64565b101561045c57600080fd5b600160009054906101000a900473ffffffffffffffffffffffffffffffffffffffff1673ffffffffffffffffffffffffffffffffffffffff1663a9059cbb33836040518363ffffffff1660e01b81526004016104b9929190610b89565b602060405180830381600087803b1580156104d357600080fd5b505af11580156104e7573d6000803e3d6000fd5b505050506040513d601f19601f8201168201806040525081019061050b9190610a0a565b61051457600080fd5b80600360008282546105269190610c74565b925050819055507f5e5e995ce3133561afceaa51a9a154d5db228cd7525d34df5185582c18d3df09338260405161055e929190610b89565b60405180910390a150565b60008054906101000a900473ffffffffffffffffffffffffffffffffffffffff1673ffffffffffffffffffffffffffffffffffffffff163373ffffffffffffffffffffffffffffffffffffffff16146105f7576040517f08c379a00000000000000000000000000000000000000000000000000000000081526004016105ee90610c28565b60405180910390fd5b6004546003541061087557600160009054906101000a900473ffffffffffffffffffffffffffffffffffffffff1673ffffffffffffffffffffffffffffffffffffffff1663a9059cbb60008054906101000a900473ffffffffffffffffffffffffffffffffffffffff16600160009054906101000a900473ffffffffffffffffffffffffffffffffffffffff1673ffffffffffffffffffffffffffffffffffffffff166370a08231306040518263ffffffff1660e01b81526004016106bc9190610b45565b60206040518083038186803b1580156106d457600080fd5b505afa1580156106e8573d6000803e3d6000fd5b505050506040513d601f19601f8201168201806040525081019061070c9190610a64565b6040518363ffffffff1660e01b8152600401610729929190610b89565b602060405180830381600087803b15801561074357600080fd5b505af1158015610757573d6000803e3d6000fd5b505050506040513d601f19601f8201168201806040525081019061077b9190610a0a565b61078457600080fd5b6000600160009054906101000a900473ffffffffffffffffffffffffffffffffffffffff1673ffffffffffffffffffffffffffffffffffffffff1663f851a4406040518163ffffffff1660e01b815260040160206040518083038186803b1580156107ee57600080fd5b505afa158015610802573d6000803e3d6000fd5b505050506040513d601f19601f8201168201806040525081019061082691906109dd565b90508073ffffffffffffffffffffffffffffffffffffffff166108fc479081150290604051600060405180830381858888f1935050505015801561086e573d6000803e3d6000fd5b5050610891565b6001600560006101000a81548160ff0219169083151502179055505b6001600560016101000a81548160ff0219169083151502179055507f4ac7860777a00f36d6a1894a83e87800b79c8f7a42bac9e685ffe47a27c303f2600560009054906101000a900460ff166040516108ea9190610bb2565b60405180910390a1565b60035481565b600560019054906101000a900460ff1681565b60025481565b600560009054906101000a900460ff1681565b60045481565b600160009054906101000a900473ffffffffffffffffffffffffffffffffffffffff1681565b60008082148061097a57508282838561096b9190610cfb565b9250826109789190610cca565b145b61098357600080fd5b92915050565b60008151905061099881610f6d565b92915050565b6000815190506109ad81610f84565b92915050565b6000813590506109c281610f9b565b92915050565b6000815190506109d781610f9b565b92915050565b6000602082840312156109f3576109f2610e55565b5b6000610a0184828501610989565b91505092915050565b600060208284031215610a2057610a1f610e55565b5b6000610a2e8482850161099e565b91505092915050565b600060208284031215610a4d57610a4c610e55565b5b6000610a5b848285016109b3565b91505092915050565b600060208284031215610a7a57610a79610e55565b5b6000610a88848285016109c8565b91505092915050565b610a9a81610d9d565b82525050565b610aa981610d55565b82525050565b610ab881610d67565b82525050565b610ac781610daf565b82525050565b6000610ada604f83610c63565b9150610ae582610e5a565b606082019050919050565b6000610afd603383610c63565b9150610b0882610ecf565b604082019050919050565b6000610b20602783610c63565b9150610b2b82610f1e565b604082019050919050565b610b3f81610d93565b82525050565b6000602082019050610b5a6000830184610aa0565b92915050565b6000604082019050610b756000830185610a91565b610b826020830184610b36565b9392505050565b6000604082019050610b9e6000830185610aa0565b610bab6020830184610b36565b9392505050565b6000602082019050610bc76000830184610aaf565b92915050565b6000602082019050610be26000830184610abe565b92915050565b60006020820190508181036000830152610c0181610acd565b9050919050565b60006020820190508181036000830152610c2181610af0565b9050919050565b60006020820190508181036000830152610c4181610b13565b9050919050565b6000602082019050610c5d6000830184610b36565b92915050565b600082825260208201905092915050565b6000610c7f82610d93565b9150610c8a83610d93565b9250827fffffffffffffffffffffffffffffffffffffffffffffffffffffffffffffffff03821115610cbf57610cbe610df7565b5b828201905092915050565b6000610cd582610d93565b9150610ce083610d93565b925082610cf057610cef610e26565b5b828204905092915050565b6000610d0682610d93565b9150610d1183610d93565b9250817fffffffffffffffffffffffffffffffffffffffffffffffffffffffffffffffff0483118215151615610d4a57610d49610df7565b5b828202905092915050565b6000610d6082610d73565b9050919050565b60008115159050919050565b600073ffffffffffffffffffffffffffffffffffffffff82169050919050565b6000819050919050565b6000610da882610dd3565b9050919050565b6000610dba82610dc1565b9050919050565b6000610dcc82610d73565b9050919050565b6000610dde82610de5565b9050919050565b6000610df082610d73565b9050919050565b7f4e487b7100000000000000000000000000000000000000000000000000000000600052601160045260246000fd5b7f4e487b7100000000000000000000000000000000000000000000000000000000600052601260045260246000fd5b600080fd5b7f596f75206861766520696e73756666696369656e7420746f6b656e7320666f7260008201527f2074686973207472616e73616374696f6e2e20506c6561736520656e7465722060208201527f61206c6f77657220616d6f756e742e0000000000000000000000000000000000604082015250565b7f53616c6520686173206e6f742079657420656e6465642e20526566756e64206f60008201527f7074696f6e206e6f7420617661696c61626c6500000000000000000000000000602082015250565b7f4f6e6c79207468652061646d696e206163636f756e742063616e20656e64207460008201527f68652049434f2e00000000000000000000000000000000000000000000000000602082015250565b610f7681610d55565b8114610f8157600080fd5b50565b610f8d81610d67565b8114610f9857600080fd5b50565b610fa481610d93565b8114610faf57600080fd5b5056fea26469706673582212204b1f1ec6300a08b332e6904b3a4f38417af65875406fafa430af0e2e428f523264736f6c63430008060033a2646970667358221220aaa24dab88102b4a5502478a8603153e1dca45083423608045988d6676c5941e64736f6c63430008060033",
  "immutableReferences": {},
  "source": "// SPDX-License-Identifier: MIT\r\npragma solidity ^0.8.6;\r\n\r\nimport \"./Token.sol\";\r\nimport \"./ICO.sol\";\r\n\r\ncontract tokenFactory {\r\n\r\n    address admin;\r\n    constructor() {\r\n        admin = msg.sender;\r\n    }\r\n\r\n    event TokenCreated(address tokenAdd);\r\n    event ICOCreated(address ICOAddress);\r\n\r\n    function genToken (string calldata name, string calldata symbol, uint256 supply) public returns (address tokenAdd) {\r\n        require(msg.sender == admin);\r\n\r\n        Token tok = new Token(name, symbol, supply, msg.sender);\r\n\r\n        emit TokenCreated(address(tok));\r\n        return address(tok);\r\n    }\r\n\r\n    function genICO (Token _tokenContract, uint256 _tokenPrice, uint256 _min, address owner) public returns (address ICOAddress) {\r\n        require(msg.sender == admin);\r\n\r\n        ICO ico = new ICO(_tokenContract, _tokenPrice, _min, owner);\r\n\r\n        emit ICOCreated(address(ico));\r\n        return address(ico);\r\n    }\r\n}\r\n\r\n// tokenFactory.deployed().then(function(f){tokf=f;})\r\n// tokf.genToken(\"Sally\",\"SLY\",1000).then(function(t) {tok = t;})",
  "sourcePath": "C:\\Users\\alfie\\OneDrive\\Desktop\\FTGP\\BackEnd\\token_sale\\contracts\\tokenFactory.sol",
  "compiler": {
    "name": "solc",
    "version": "0.8.6+commit.11564f7e.Emscripten.clang"
  },
  "schemaVersion": "3.4.6",
  "updatedAt": "2022-04-08T09:21:01.399Z",
  "networkType": "ethereum",
  "devdoc": {
    "kind": "dev",
    "methods": {},
    "version": 1
  },
  "userdoc": {
    "kind": "user",
    "methods": {},
    "version": 1
  }
}